:100000000C9461000C9473000C9473000C947300B6
:100010000C9473000C9473000C9473000C94730094
:100020000C9473000C9473000C9473000C94730084
:100030000C9473000C9473000C9473000C94730074
:100040000C942E010C9473000C9473000C947300A8
:100050000C9473000C9473000C9473000C94730054
:100060000C9473000C947300000000002300260021
:10007000290000000000240027002A0000000000E2
:10008000250028002B0004040404040404040202D4
:100090000202020203030303030301020408102007
:1000A0004080010204081020010204081020000012
:1000B0000008000201000003040700000000000027
:1000C000000011241FBECFEFD8E0DEBFCDBF21E07E
:1000D000A0E0B1E001C01D92AB30B207E1F70E9491
:1000E00078010C945E030C940000833081F028F4B6
:1000F000813099F08230A1F008958730A9F08830DE
:10010000B9F08430D1F4809180008F7D03C080915C
:1001100080008F7780938000089584B58F7702C028
:1001200084B58F7D84BD08958091B0008F7703C022
:100130008091B0008F7D8093B00008951F93CF937E
:10014000DF93282F30E0F901E255FF4F8491F90148
:10015000E656FF4FD491F901EA57FF4FC491CC23E3
:10016000C1F0162F81110E947500EC2FF0E0EE0F08
:10017000FF1FE458FF4FA591B4919FB7F894111158
:1001800004C08C91D095D82302C0EC91DE2BDC9377
:100190009FBFDF91CF911F910895CF93DF9390E0A0
:1001A000FC01E656FF4F2491FC01EA57FF4F849172
:1001B000882361F190E0880F991FFC01EE58FF4FF2
:1001C000C591D491FC01E458FF4FA591B491611100
:1001D00009C09FB7F8948881209582238883EC9189
:1001E0002E230BC0623061F49FB7F8948881322FC0
:1001F000309583238883EC912E2B2C939FBF06C0D0
:100200008FB7F894E8812E2B28838FBFDF91CF9191
:1002100008953FB7F8948091070190910801A0914B
:100220000901B0910A0126B5A89B05C02F3F19F01E
:100230000196A11DB11D3FBFBA2FA92F982F882766
:10024000820F911DA11DB11DBC01CD0142E0660FC1
:10025000771F881F991F4A95D1F708951F920F9213
:100260000FB60F9211242F933F938F939F93AF93C9
:10027000BF938091030190910401A0910501B09179
:1002800006013091020123E0230F2D3720F401965F
:10029000A11DB11D05C026E8230F0296A11DB11DA9
:1002A000209302018093030190930401A093050120
:1002B000B09306018091070190910801A091090176
:1002C000B0910A010196A11DB11D80930701909381
:1002D0000801A0930901B0930A01BF91AF919F91CA
:1002E0008F913F912F910F900FBE0F901F901895F7
:1002F000789484B5826084BD84B5816084BD85B501
:10030000826085BD85B5816085BD80916E0081600C
:1003100080936E00109281008091810082608093B2
:1003200081008091810081608093810080918000B4
:100330008160809380008091B10084608093B100DF
:100340008091B00081608093B00080917A008460D9
:1003500080937A0080917A00826080937A00809105
:100360007A00816080937A0080917A00806880931F
:100370007A001092C10061E081E00E94CD0061E04E
:1003800082E00E94CD0061E083E00E94CD0061E048
:1003900084E00E94CD0061E085E00E94CD0061E034
:1003A00086E00E94CD0061E087E00E94CD0060E021
:1003B00088E00E94CD0026EB822E20E0922EC2EA39
:1003C000D0E00EE810E030E0A32E30E0B32EF401D0
:1003D0008491FE01E490F801F490FF2009F43EC0FE
:1003E00081110E947500EF2DF0E0EE0FFF1FE8591C
:1003F000FF4FA591B4918C918E2181F180910001E4
:1004000090910101019690930101809300010E9457
:1004100009012B013C0188EEC82E83E0D82EE12C87
:10042000F12C0E940901DC01CB0184199509A60970
:10043000B709883E9340A105B10598F3F1E0CF1AC2
:10044000D108E108F10828EE420E23E0521E611C9B
:10045000711CC114D104E104F10419F7E09000010A
:10046000F0900101E114F104B1F461E081E00E9437
:100470009E0061E082E00E949E0061E083E00E94B5
:100480009E0061E084E00E949E0061E085E00E94A1
:100490009E0061E019C0F1E0EF16F104E9F460E0BC
:1004A00081E00E949E0061E082E00E949E0061E087
:1004B00083E00E949E0060E084E00E949E0060E075
:1004C00085E00E949E0060E086E00E949E0060E061
:1004D00087E00E949E0063C022E0E216F104E9F486
:1004E00061E081E00E949E0061E082E00E949E0047
:1004F00060E083E00E949E0061E084E00E949E0034
:1005000061E085E00E949E0060E086E00E949E001F
:1005100061E087E00E949E0063C083E0E816F1047A
:10052000E9F461E081E00E949E0061E082E00E94C7
:100530009E0061E083E00E949E0061E084E00E94F2
:100540009E0060E085E00E949E0060E086E00E94E0
:100550009E0061E087E00E949E004CC0E4E0EE1641
:10056000F104E9F460E081E00E949E0061E082E035
:100570000E949E0061E083E00E949E0060E084E0B3
:100580000E949E0060E085E00E949E0061E086E09F
:100590000E949E0061E087E00E949E005FC0F5E03F
:1005A000EF16F104E9F461E081E00E949E0060E052
:1005B00082E00E949E0061E083E00E949E0061E074
:1005C00084E00E949E0060E085E00E949E0061E061
:1005D00086E00E949E0061E087E00E949E005FC06E
:1005E00026E0E216F10431F461E081E00E949E0011
:1005F00060E027C087E0E816F104D1F461E081E013
:100600000E949E0061E082E00E949E0061E083E023
:100610000E949E0060E084E00E949E0060E085E011
:100620000E949E0060E086E00E949E0060E033C071
:10063000E8E0EE16F10491F461E081E00E949E0092
:1006400061E082E00E949E0061E083E00E949E00E3
:1006500061E084E00E949E0061E015C0F9E0EF16C1
:10066000F104E9F461E081E00E949E0061E082E033
:100670000E949E0061E083E00E949E0061E084E0B1
:100680000E949E0060E085E00E949E0061E086E09E
:100690000E949E0061E087E00E949E0008C02AE060
:1006A000E216F10421F41092010110920001A1144C
:1006B000B10409F48CCE0E94000089CEF894FFCFDB
:00000001FF
