:100000000C9462000C948A000C948A000C948A0070
:100010000C948A000C948A000C948A000C948A0038
:100020000C948A000C948A000C948A000C948A0028
:100030000C948A000C948A000C948A000C948A0018
:100040000C94E4010C948A000C9469020C94430211
:100050000C948A000C948A000C948A000C948A00F8
:100060000C948A000C948A000000000024002700F1
:100070002A0000000000250028002B0000000000DE
:1000800023002600290004040404040404040202DA
:100090000202020203030303030301020408102007
:1000A0004080010204081020010204081020000012
:1000B0000008000201000003040700000000000027
:1000C0000000D30A11241FBECFEFD8E0DEBFCDBFA2
:1000D00012E0A0E0B1E0E6E0F8E102C005900D9288
:1000E000A230B107D9F723E0A2E0B2E001C01D922F
:1000F000AE33B207E1F710E0C2E6D0E004C02197CA
:10010000FE010E94E70BC136D107C9F70E94E00546
:100110000C94010C0C940000CF92DF92EF92FF92AE
:100120000F931F93CF93DF936C017A018B01C0E093
:10013000D0E0CE15DF0581F0D8016D918D01D6019B
:10014000ED91FC910190F081E02DC6010995892B7C
:1001500011F02196EECF7E01C701DF91CF911F9163
:100160000F91FF90EF90DF90CF900895FC01538D99
:10017000448D252F30E0842F90E0821B930B541781
:1001800010F0CF96089501970895FC01918D828D0E
:10019000981761F0828DDF01A80FB11D5D968C91DB
:1001A000928D9F5F9F73928F90E008958FEF9FEFE6
:1001B0000895FC01918D828D981731F0828DE80FA2
:1001C000F11D858D90E008958FEF9FEF0895FC015C
:1001D000918D228D892F90E0805C9F4F821B910929
:1001E0008F73992708958AE192E00E94E70021E049
:1001F000892B09F420E0822F0895FC01848DDF0112
:10020000A80FB11DA35ABF4F2C91848D90E0019689
:100210008F739927848FA689B7892C93A089B18978
:100220008C91837080648C93938D848D981306C019
:100230000288F389E02D80818F7D80830895EF927D
:10024000FF920F931F93CF93DF93EC0181E0888F90
:100250009B8D8C8D981305C0E889F989808185FD77
:1002600026C0F62E0B8D10E00F5F1F4F0F73112766
:10027000E02E8C8DE8120CC00FB607FCFACFE8898F
:10028000F989808185FFF5CFCE010E94FD00F1CF75
:100290008B8DFE01E80FF11DE35AFF4FF0829FB7EF
:1002A000F8940B8FEA89FB89808180620AC09FB72E
:1002B000F894EE89FF896083E889F98980818370E9
:1002C000806480839FBF81E090E0DF91CF911F9198
:1002D0000F91FF90EF900895CF93DF93EC01888DFD
:1002E0008823C9F0EA89FB89808185FD05C0A8893A
:1002F000B9898C9186FD0FC00FB607FCF5CF8081C0
:1003000085FFF2CFA889B9898C9185FFEDCFCE0109
:100310000E94FD00E7CFDF91CF91089580E090E04B
:10032000892B29F00E94F30081110C94000008959C
:10033000089580E090E00895862F642F0C94C904FE
:10034000862F642F0C949A04CF93DF93EC0160E026
:100350008E810E949A0461E08E810E949A0460E07E
:100360008E810E949A048BE891E00197F1F7DF916A
:10037000CF910895862F0C9471040E94FC0B3FB717
:10038000F8948091120290911302A0911402B091FE
:10039000150226B5A89B05C02F3F19F00196A11D97
:1003A000B11D3FBFBA2FA92F982F8827820F911D0B
:1003B000A11DB11DBC01CD0142E0660F771F881F52
:1003C000991F4A95D1F708951F920F920FB60F9279
:1003D00011242F933F938F939F93AF93BF9380915B
:1003E000160290911702A0911802B0911902309153
:1003F000110223E0230F2D3720F40196A11DB11D1A
:1004000005C026E8230F0296A11DB11D20931102FD
:100410008093160290931702A0931802B0931902CA
:100420008091120290911302A0911402B0911502D2
:100430000196A11DB11D8093120290931302A09307
:100440001402B0931502BF91AF919F918F913F918C
:100450002F910F900FBE0F901F9018956115710589
:1004600079F0FB0101900020E9F73197AF01461BBD
:10047000570BDC01ED91FC910280F381E02D099492
:1004800080E090E008951F920F920FB60F92112412
:100490002F933F934F935F936F937F938F939F938C
:1004A000AF93BF93EF93FF938AE192E00E94FD0028
:1004B000FF91EF91BF91AF919F918F917F916F913C
:1004C0005F914F913F912F910F900FBE0F901F9012
:1004D00018951F920F920FB60F9211242F938F939E
:1004E0009F93EF93FF93E0912A02F0912B0280817A
:1004F000E0913002F091310282FD12C09081809132
:1005000033028F5F8F7320913402821751F0E09194
:100510003302F0E0E65EFD4F958F8093330201C019
:100520008081FF91EF919F918F912F910F900FBE3E
:100530000F901F901895CF92DF92EF92FF920F933A
:100540001F93CF93DF936C017C0187E0E80EF11CD1
:10055000C0E0D0E0062F10E0B8010C2E02C0759567
:1005600067950A94E2F76170F70181917F010E941B
:100570009A042196C430D10579F7C601DF91CF9155
:100580001F910F91FF90EF90DF90CF900C94A401FA
:10059000CF92DF92EF92FF920F931F93CF93DF934F
:1005A000EC01F62E642F8C810E949A048D818F3F7E
:1005B00019F060E00E949A048F850F2D10E084FFEF
:1005C00025C06E0187E0C80ED11CE12CF12CB801CA
:1005D0000E2C02C0759567950A94E2F76170F601DA
:1005E00081916F010E949A04FFEFEF1AFF0A88E0E1
:1005F000E816F10461F7CE01DF91CF911F910F91C1
:10060000FF90EF90DF90CF900C94A401B80184E0AC
:10061000759567958A95E1F7CE010E949B026F2D33
:10062000CE01DF91CF911F910F91FF90EF90DF905E
:10063000CF900C949B0241E00E94C80281E090E0C0
:10064000089596E0899FD0011124A153BD4F909643
:100650007C936E935F9791E091969C939197909184
:100660003B03E0913C03F0913D03992339F030972F
:1006700051F0811108C08091EB0204C0309719F04D
:100680005C968C9109940895833081F028F4813030
:1006900099F08230A1F008958730A9F08830B9F040
:1006A0008430D1F4809180008F7D03C080918000E0
:1006B0008F7780938000089584B58F7702C084B5CA
:1006C0008F7D84BD08958091B0008F7703C08091A5
:1006D000B0008F7D8093B000089540E0682F87EBD5
:1006E00092E00C94C80281E00E946D038BE39FE1CD
:1006F0000197F1F70895CF93DF93BC018AE192E06F
:100700000E942E02EC016EEF71E08AE192E00E94FD
:100710002E028C0F9D1FDF91CF9108958F929F9293
:10072000AF92BF92CF92DF92EF92FF92CF93DF937F
:10073000CDB7DEB7A1970FB6F894DEBF0FBECDBF21
:100740006B017C0197FF2CC041E06DE287EB92E0EA
:100750000E94C80222273327A9012C193D094E09FE
:100760005F0919A2CE0181967C019AE0892E912C15
:10077000A12CB12CCA01B901A50194010E949B0BC7
:10078000605DF70162937F01211531054105510537
:1007900089F7BF0187EB92E00E942E0201961FC0ED
:1007A0009B01AC0119A2CE0181967C018AE0882EC2
:1007B000912CA12CB12CCA01B901A50194010E9470
:1007C0009B0B605DF70162937F01211531054105A7
:1007D000510589F7BF0187EB92E00E942E02A19696
:1007E0000FB6F894DEBF0FBECDBFDF91CF91FF9063
:1007F000EF90DF90CF90BF90AF909F908F90089533
:10080000CF92DF92EF92FF920F931F9396E0899F12
:10081000F0011124E153FD4F11A2278D30A12130A9
:10082000310539F158F02230310509F447C0233041
:10083000310509F04FC060E070E044C0662309F460
:1008400049C061E070E00E9421032FB7F8948091C5
:10085000160290911702A0911802B09119022FBFB1
:100860008093270390932803A0932903B0932A032E
:1008700031C09FB7F894C0901602D0901702E09054
:100880001802F09019029FBF0091270310912803CE
:100890002091290330912A03C01AD10AE20AF30AEF
:1008A0000091390310913A0320E030E00C151D054A
:1008B0002E053F0518F462E070E004C061110AC023
:1008C00063E070E01F910F91FF90EF90DF90CF9069
:1008D0000C9421031F910F91FF90EF90DF90CF9028
:1008E0000895CF93DF93282F30E0F901E255FF4FB1
:1008F0008491F901E656FF4FD491F901EA57FF4F71
:10090000C491CC2391F081110E944403EC2FF0E0BC
:10091000EE0FFF1FE458FF4FA591B491EC91ED232A
:1009200081E090E021F480E002C080E090E0DF917F
:10093000CF9108951F93CF93DF93282F30E0F901D3
:10094000E255FF4F8491F901E656FF4FD491F9012A
:10095000EA57FF4FC491CC23C1F0162F81110E949A
:100960004403EC2FF0E0EE0FFF1FEE58FF4FA59170
:10097000B4919FB7F894111104C08C91D095D823ED
:1009800002C0EC91DE2BDC939FBFDF91CF911F91D2
:100990000895CF93DF9390E0FC01E656FF4F24913A
:1009A000FC01EA57FF4F8491882361F190E0880FA2
:1009B000991FFC01E859FF4FC591D491FC01EE58F5
:1009C000FF4FA591B491611109C09FB7F894888138
:1009D000209582238883EC912E230BC0623061F432
:1009E0009FB7F8948881322F309583238883EC91C8
:1009F0002E2B2C939FBF06C08FB7F894E8812E2B27
:100A000028838FBFDF91CF910895CF93DF938230FA
:100A100028F09091C60298609093C6028093CA0213
:100A20001092CB0280E48093CC0280E18093CD02CF
:100A300080E58093CE0261E08091BB020E94C904F0
:100A40008091BC028F3F19F061E00E94C90461E00F
:100A50008091BD020E94C904C7EBD2E09E01275BD2
:100A600032408091C60284FD03C084E090E002C061
:100A700088E090E02196281739072CF461E08E81F8
:100A80000E94C904EBCF8BE39DE00197F1F760E092
:100A90008091BB020E949A0460E08091BD020E9496
:100AA0009A048091BC028F3F19F060E00E949A0482
:100AB0008091C60284FD20C063E087EB92E00E9433
:100AC0009B02CBE4D6E4CE010197F1F763E087EB1C
:100AD00092E00E949B022197F1F763E087EB92E09E
:100AE0000E949B0283E592E00197F1F762E087EBB9
:100AF00092E00E949B0215C080620E946D038BE40D
:100B000096E40197F1F78091C60280620E946D031E
:100B100083E592E00197F1F78091C60280620E941E
:100B20006D038091C60280620E946D0384E0809311
:100B3000C7028CE00E946D030E94730382E08093E1
:100B4000C80286E0DF91CF910C946D038F929F9243
:100B5000AF92BF92CF92DF92EF92FF926B017C0136
:100B60000E94BF014B015C01C114D104E104F104F6
:100B7000F1F00E94BF01DC01CB0188199909AA0993
:100B8000BB09883E9340A105B10570F321E0C21A6C
:100B9000D108E108F10888EE880E83E0981EA11CB8
:100BA000B11CC114D104E104F10419F7DDCFFF90A9
:100BB000EF90DF90CF90BF90AF909F908F9008956F
:100BC000789484B5826084BD84B5816084BD85B528
:100BD000826085BD85B5816085BD80916E00816034
:100BE00080936E00109281008091810082608093DA
:100BF00081008091810081608093810080918000DC
:100C00008160809380008091B10084608093B10006
:100C10008091B00081608093B00080917A00846000
:100C200080937A0080917A00826080937A0080912C
:100C30007A00816080937A0080917A008068809346
:100C40007A001092C10082E00E940505E0912A021C
:100C5000F0912B0282E08083E0912602F09127023E
:100C60001082E0912802F09129028FEC808310928B
:100C70003202E0912E02F0912F0286E08083E09113
:100C80002C02F0912D02808180618083E0912C0202
:100C9000F0912D02808188608083E0912C02F09198
:100CA0002D02808180688083E0912C02F0912D02DA
:100CB00080818F7D808360E471E087EB92E00E9409
:100CC0002E02E091CA02E23010F4E15001C0E1E0EE
:100CD000F0E0E954FD4F848980680E946D036EE462
:100CE00071E087EB92E00E942E0260ED77E080E0F9
:100CF00090E00E94A6050E94730347E0242E312C49
:100D0000412C512C54E0852E912CA12CB12C81E04A
:100D100080933B038FB7F8944091160250911702CD
:100D200060911802709119028FBF80912B039091EE
:100D30002C03A0912D03B0912E03481B590B6A0B75
:100D40007B0B8091370390913803A0E0B0E08417CB
:100D50009507A607B70708F0EEC0C0E080913503FD
:100D6000C81710F0712C40C0E0913103F0913203AC
:100D7000EC0FF11D62E080810E94C904CF5FEECFCD
:100D8000C62DD0E0E0913103F0913203EC0FFD1F4E
:100D900080810E9471042496CC0FDD1FC153DD4F6A
:100DA000892B09F04DC0888199818C299D299983CF
:100DB0008883639480913503681610F3E0913303C0
:100DC000F0913403E00FF11F61E080810E949A04EA
:100DD0008091330390913403FC01E00FF11F60E038
:100DE00080810E94C904739480913603781668F557
:100DF000072D10E0E0913303F0913403E00FF11F71
:100E000061E080810E94C904E0913303F0913403D2
:100E1000E00FF11F60E080810E949A0481E090E081
:100E2000A0E0B0E0072C04C0880F991FAA1FBB1FC9
:100E30000A94D2F76C017C01E094F094612CBACF53
:100E4000888199818E219F21B2CF2FECE22E22E062
:100E5000F22EF701878D90A1892B31F4148E2FEF9C
:100E60003FEF368F258F11A236968BE093E08E17D9
:100E70009F0781F7C0E096E0D92E80913503C8170F
:100E800058F5D0E00C2F10E0000F111F09521D4F34
:100E900020913603D217F0F4D8014D915C910D2EBC
:100EA00002C0569547950A94E2F7642F6170C29F7D
:100EB000900111242D0F311DEFECF2E080E0A58DA3
:100EC000B68D2A173B0709F464C38F5F36968A30C4
:100ED000B1F743C3CF5FD1CF80E0F70191A191116A
:100EE00081E0F6E0EF0EF11C2BE033E02E153F051C
:100EF000A1F79FB7F89440911602509117026091A4
:100F00001802709119029FBF40932B0350932C033A
:100F100060932D0370932E03882369F08091F00273
:100F2000882349F08091EE029091EF02019719F425
:100F3000C091EB0203C010923B03C0E0C0931002CB
:100F40006C2F8AE192E00E941F01CC2309F438C281
:100F50000E947303CA32F1F489E591E00E947B0399
:100F600010920602109207021092080210920902D3
:100F700010920B0210920C0210920D0210920E02AF
:100F800010920202109203021092040210920502C3
:100F900010920F0280911002813339F587E691E0BB
:100FA0000E947B03209102023091030240910402CF
:100FB00050910502211531054105510529F481E0C3
:100FC00090E0A0E0B0E009C0AAE0B0E00E94DC0B35
:100FD000DC01CB010196A11DB11D8093020290930B
:100FE0000302A0930402B09305028091100284339F
:100FF00059F580E791E00E947B0320910202309135
:10100000030240910402509105022115310541056A
:10101000510549F48092020290920302A0920402C8
:10102000B092050211C0AAE0B0E00E94DC0BDC0126
:10103000CB010496A11DB11D80930202909303027F
:10104000A0930402B093050280911002873359F5F2
:1010500089E791E00E947B03209102023091030214
:1010600040910402509105022115310541055105B9
:1010700049F42092020230920302409204025092FC
:10108000050211C0AAE0B0E00E94DC0BDC01CB013C
:101090000796A11DB11D8093020290930302A093B5
:1010A0000402B0930502809110028033E9F482E8D3
:1010B00091E00E947B032091020230910302409153
:1010C000040250910502211531054105510561F0D9
:1010D000AAE0B0E00E94DC0B60930202709303026E
:1010E000809304029093050280911002823339F5B7
:1010F0008BE891E00E947B03209102023091030271
:101100004091040250910502211531054105510518
:1011100029F482E090E0A0E0B0E009C0AAE0B0E0ED
:101120000E94DC0BDC01CB010296A11DB11D809356
:10113000020290930302A0930402B09305028091EF
:101140001002853339F584E991E00E947B032091F8
:1011500002023091030240910402509105022115D0
:1011600031054105510529F485E090E0A0E0B0E0AB
:1011700009C0AAE0B0E00E94DC0BDC01CB010596BF
:10118000A11DB11D8093020290930302A09304025B
:10119000B093050280911002883339F58DE991E012
:1011A0000E947B03209102023091030240910402CD
:1011B00050910502211531054105510529F488E0BA
:1011C00090E0A0E0B0E009C0AAE0B0E00E94DC0B33
:1011D000DC01CB010896A11DB11D80930202909302
:1011E0000302A0930402B09305028091100283329F
:1011F000B9F486EA91E00E947B038091020290910B
:101200000302A0910402B09105028093060290931C
:101210000702A0930802B093090281E080930F02B5
:1012200080911002833339F583EB91E00E947B03B8
:101230002091020230910302409104025091050274
:10124000211531054105510529F483E090E0A0E026
:10125000B0E009C0AAE0B0E00E94DC0BDC01CB01E9
:101260000396A11DB11D8093020290930302A093E7
:101270000402B093050280911002863339F58CEB9D
:1012800091E00E947B032091020230910302409181
:10129000040250910502211531054105510529F43B
:1012A00086E090E0A0E0B0E009C0AAE0B0E00E94D3
:1012B000DC0BDC01CB010696A11DB11D809302025F
:1012C00090930302A0930402B09305028091100250
:1012D000893339F585EC91E00E947B03209102026D
:1012E000309103024091040250910502211531050D
:1012F0004105510529F489E090E0A0E0B0E009C083
:10130000AAE0B0E00E94DC0BDC01CB010996A11D34
:10131000B11D8093020290930302A0930402B09344
:101320000502809110029FEB980F943008F048C09E
:1013300040910202509103026091040270910502F3
:1013400040930B0250930C0260930D0270930E02B7
:1013500010920202109203021092040210920502EF
:10136000813439F48EEC91E00E947B038BE2809310
:101370000A0280911002823439F487ED91E00E94D4
:101380007B038DE280930A0280911002833439F44A
:1013900083EE91E00E947B038AE280930A028091AF
:1013A0001002843439F482EF91E00E947B038FE2D3
:1013B00080930A0264E670E080E090E00E94A60557
:1013C00080910F02882309F471C080910A028B3248
:1013D000A9F440910B0250910C0260910D027091A2
:1013E0000E028091060290910702A0910802B0912E
:1013F0000902840F951FA61FB71F16C08D32E9F48E
:1014000080910B0290910C02A0910D02B0910E02FE
:101410004091060250910702609108027091090202
:10142000841B950BA60BB70B8093020290930302CB
:10143000A0930402B093050239C08A32D9F42091F6
:101440000B0230910C0240910D0250910E026091FE
:1014500006027091070280910802909109020E9491
:101460008B0B6093020270930302809304029093AB
:1014700005021CC08F32D1F460910B0270910C02F6
:1014800080910D0290910E02209106023091070288
:1014900040910802509109020E94BD0B2093020264
:1014A000309303024093040250930502E1E08091DF
:1014B000CA028111E0E0E195F0E0E954FD4F848932
:1014C00080680E946D0360910B0270910C02809104
:1014D0000D0290910E020E948E0341E060910A027B
:1014E00087EB92E00E94C8026091060270910702A9
:1014F00080910802909109020E948E0380910F0250
:10150000882381F06BEF71E087EB92E00E942E025E
:101510006091020270910302809104029091050291
:101520000E948E03E091CA02E23010F4E15001C043
:10153000E1E0F0E0E954FD4F848980680E946D038A
:101540006091020270910302809104029091050261
:101550000E948E030E948E01DACB40FF1CC0EFEC8C
:10156000F2E080E090E0448D411117C0E0912F033C
:10157000F0913003E20FF31F4081D89EF001D99E15
:10158000F00D1124E153FD4F448F368F258F10A2AB
:10159000178E0E940004DF5F7BCC019636968A305E
:1015A000910509F7F8CF10921D0210921C0288EEE7
:1015B00093E0A0E0B0E080931E0290931F02A093FE
:1015C0002002B09321028CE191E090931B02809362
:1015D0001A0285EC90E0909327028093260284EC17
:1015E00090E0909329028093280280EC90E0909301
:1015F0002B0280932A0281EC90E090932D0280933D
:101600002C0282EC90E090932F0280932E0286ECC5
:1016100090E0909331028093300210923302109246
:10162000340210923502109236021092D1021092BA
:10163000D5021092D4021092D6028AE391E09093E0
:10164000D0028093CF02EFECF2E0148E10A2178E3E
:1016500011A2369683E0EB30F807B9F784E091E009
:10166000909332038093310380E091E090933403B0
:101670008093330384E0809335038093360388E0BE
:1016800091E09093300380932F038AE090E0909351
:1016900038038093370384EF91E090933A0380936B
:1016A000390310923D0310923C0310922B031092C9
:1016B0002C0310922D0310922E0310923B031092D4
:1016C000BA021092B9028EE291E09093B802809330
:1016D000B70288E08093BB028FEF8093BC0289E061
:1016E0008093BD028AE08093BE028BE08093BF02AC
:1016F0008CE08093C0028DE08093C1021092C20200
:101700001092C3021092C4021092C5021092C60237
:1017100081E00C940505DB018F939F930E94DC0B05
:10172000BF91AF91A29F800D911DA39F900DB29F7D
:10173000900D11240895A1E21A2EAA1BBB1BFD01D6
:101740000DC0AA1FBB1FEE1FFF1FA217B307E407A0
:10175000F50720F0A21BB30BE40BF50B661F771FF8
:10176000881F991F1A9469F76095709580959095D8
:101770009B01AC01BD01CF010895052E97FB1EF41E
:1017800000940E94D40B57FD07D00E949B0B07FCCE
:1017900003D04EF40C94D40B509540953095219580
:1017A0003F4F4F4F5F4F089590958095709561958D
:1017B0007F4F8F4F9F4F08950E94ED0BA59F900D77
:1017C000B49F900DA49F800D911D11240895EE0FDC
:1017D000FF1F0590F491E02D0994A29FB001B39FE3
:1017E000C001A39F700D811D1124911DB29F700D2A
:1017F000811D1124911D089581E090E0F8940C94CE
:06180000010CF894FFCF7B
:1018060004050607000102033738394434353643E8
:10181600313233422A302341000000001F018C0080
:10182600B6006C01E700C500D900000000001B03EC
:101836008C0099019801000000009C01A001BA01EA
:101846006469676974616C2063616C6379006361C4
:101856006C63756C61746F7200427574746F6E2080
:1018660043616E63656C00427574746F6E2031005F
:10187600427574746F6E203400427574746F6E20F6
:101886003700427574746F6E203000427574746F41
:101896006E203200427574746F6E20350042757486
:1018A600746F6E203800427574746F6E20457175C2
:1018B600616C00427574746F6E20330042757474E7
:1018C6006F6E203600427574746F6E203900416465
:1018D600646974696F6E00537562747261637469CA
:1018E6006F6E004D756C7469706C69636174696FB5
:1018F6006E004465766573696F6E00203D000D0AC3
:021906000000DF
:00000001FF
